{
  "_format": "hh-sol-artifact-1",
  "contractName": "TokenEscrow",
  "sourceName": "contracts/tokenEscrow.sol",
  "abi": [
    {
      "inputs": [],
      "stateMutability": "nonpayable",
      "type": "constructor"
    },
    {
      "inputs": [
        {
          "internalType": "uint256",
          "name": "amount",
          "type": "uint256"
        },
        {
          "internalType": "address",
          "name": "releaser",
          "type": "address"
        },
        {
          "internalType": "address",
          "name": "receiver",
          "type": "address"
        },
        {
          "internalType": "address",
          "name": "tokenAdd",
          "type": "address"
        }
      ],
      "name": "release",
      "outputs": [],
      "stateMutability": "nonpayable",
      "type": "function"
    },
    {
      "inputs": [
        {
          "internalType": "uint256",
          "name": "amount",
          "type": "uint256"
        },
        {
          "internalType": "address",
          "name": "sender",
          "type": "address"
        },
        {
          "internalType": "address",
          "name": "tokenAddress",
          "type": "address"
        }
      ],
      "name": "transferUSDT",
      "outputs": [],
      "stateMutability": "nonpayable",
      "type": "function"
    }
  ],
  "bytecode": "0x608060405234801561001057600080fd5b5033600160006101000a81548173ffffffffffffffffffffffffffffffffffffffff021916908373ffffffffffffffffffffffffffffffffffffffff160217905550610a70806100616000396000f3fe608060405234801561001057600080fd5b50600436106100365760003560e01c8063e8730bd81461003b578063f0b1f49314610057575b600080fd5b6100556004803603810190610050919061066f565b610073565b005b610071600480360381019061006c9190610620565b61037f565b005b600160009054906101000a900473ffffffffffffffffffffffffffffffffffffffff1673ffffffffffffffffffffffffffffffffffffffff163373ffffffffffffffffffffffffffffffffffffffff1614610103576040517f08c379a00000000000000000000000000000000000000000000000000000000081526004016100fa90610822565b60405180910390fd5b83600260008373ffffffffffffffffffffffffffffffffffffffff1673ffffffffffffffffffffffffffffffffffffffff16815260200190815260200160002060008573ffffffffffffffffffffffffffffffffffffffff1673ffffffffffffffffffffffffffffffffffffffff1681526020019081526020016000205410156101c2576040517f08c379a00000000000000000000000000000000000000000000000000000000081526004016101b990610802565b60405180910390fd5b60008190508073ffffffffffffffffffffffffffffffffffffffff1663095ea7b384876040518363ffffffff1660e01b81526004016102029291906107b9565b602060405180830381600087803b15801561021c57600080fd5b505af1158015610230573d6000803e3d6000fd5b505050506040513d601f19601f8201168201806040525081019061025491906105ce565b508073ffffffffffffffffffffffffffffffffffffffff166323b872dd3085886040518463ffffffff1660e01b815260040161029293929190610782565b602060405180830381600087803b1580156102ac57600080fd5b505af11580156102c0573d6000803e3d6000fd5b505050506040513d601f19601f820116820180604052508101906102e491906105ce565b5084600260008473ffffffffffffffffffffffffffffffffffffffff1673ffffffffffffffffffffffffffffffffffffffff16815260200190815260200160002060008673ffffffffffffffffffffffffffffffffffffffff1673ffffffffffffffffffffffffffffffffffffffff168152602001908152602001600020600082825461037191906108a9565b925050819055505050505050565b6000819050838173ffffffffffffffffffffffffffffffffffffffff1663dd62ed3e85306040518363ffffffff1660e01b81526004016103c0929190610759565b60206040518083038186803b1580156103d857600080fd5b505afa1580156103ec573d6000803e3d6000fd5b505050506040513d601f19601f8201168201806040525081019061041091906105f7565b1015610451576040517f08c379a0000000000000000000000000000000000000000000000000000000008152600401610448906107e2565b60405180910390fd5b8073ffffffffffffffffffffffffffffffffffffffff166323b872dd8430876040518463ffffffff1660e01b815260040161048e93929190610782565b602060405180830381600087803b1580156104a857600080fd5b505af11580156104bc573d6000803e3d6000fd5b505050506040513d601f19601f820116820180604052508101906104e091906105ce565b5083600260008473ffffffffffffffffffffffffffffffffffffffff1673ffffffffffffffffffffffffffffffffffffffff16815260200190815260200160002060008573ffffffffffffffffffffffffffffffffffffffff1673ffffffffffffffffffffffffffffffffffffffff168152602001908152602001600020600082825461056d9190610853565b9250508190555050505050565b600081359050610589816109f5565b92915050565b60008151905061059e81610a0c565b92915050565b6000813590506105b381610a23565b92915050565b6000815190506105c881610a23565b92915050565b6000602082840312156105e057600080fd5b60006105ee8482850161058f565b91505092915050565b60006020828403121561060957600080fd5b6000610617848285016105b9565b91505092915050565b60008060006060848603121561063557600080fd5b6000610643868287016105a4565b93505060206106548682870161057a565b92505060406106658682870161057a565b9150509250925092565b6000806000806080858703121561068557600080fd5b6000610693878288016105a4565b94505060206106a48782880161057a565b93505060406106b58782880161057a565b92505060606106c68782880161057a565b91505092959194509250565b6106db816108dd565b82525050565b60006106ee601e83610842565b91506106f982610954565b602082019050919050565b6000610711602a83610842565b915061071c8261097d565b604082019050919050565b6000610734601883610842565b915061073f826109cc565b602082019050919050565b6107538161091b565b82525050565b600060408201905061076e60008301856106d2565b61077b60208301846106d2565b9392505050565b600060608201905061079760008301866106d2565b6107a460208301856106d2565b6107b1604083018461074a565b949350505050565b60006040820190506107ce60008301856106d2565b6107db602083018461074a565b9392505050565b600060208201905081810360008301526107fb816106e1565b9050919050565b6000602082019050818103600083015261081b81610704565b9050919050565b6000602082019050818103600083015261083b81610727565b9050919050565b600082825260208201905092915050565b600061085e8261091b565b91506108698361091b565b9250827fffffffffffffffffffffffffffffffffffffffffffffffffffffffffffffffff0382111561089e5761089d610925565b5b828201905092915050565b60006108b48261091b565b91506108bf8361091b565b9250828210156108d2576108d1610925565b5b828203905092915050565b60006108e8826108fb565b9050919050565b60008115159050919050565b600073ffffffffffffffffffffffffffffffffffffffff82169050919050565b6000819050919050565b7f4e487b7100000000000000000000000000000000000000000000000000000000600052601160045260246000fd5b7f4e45454420544f20415050524f5645205350454e44494e472046495253540000600082015250565b7f52656c656173657220646f6573206e6f7420686176652074686520726571756960008201527f72656420616d6f756e7400000000000000000000000000000000000000000000602082015250565b7f4f6e6c79206f776e65722063616e2063616c6c20746869730000000000000000600082015250565b6109fe816108dd565b8114610a0957600080fd5b50565b610a15816108ef565b8114610a2057600080fd5b50565b610a2c8161091b565b8114610a3757600080fd5b5056fea26469706673582212206436cf7c798a631917eb7f353853a3c61b8af5d818848dbb141a233e3701d07264736f6c63430008040033",
  "linkReferences": {},
  "deployedLinkReferences": {}
}